{
  "contractName": "KYC",
  "abi": [
    {
      "inputs": [],
      "stateMutability": "nonpayable",
      "type": "constructor"
    },
    {
      "anonymous": false,
      "inputs": [
        {
          "indexed": true,
          "internalType": "address",
          "name": "_by",
          "type": "address"
        },
        {
          "indexed": true,
          "internalType": "address",
          "name": "_bankAddress",
          "type": "address"
        },
        {
          "indexed": false,
          "internalType": "string",
          "name": "_bankName",
          "type": "string"
        }
      ],
      "name": "BankAdded",
      "type": "event"
    },
    {
      "anonymous": false,
      "inputs": [
        {
          "indexed": true,
          "internalType": "address",
          "name": "_by",
          "type": "address"
        },
        {
          "indexed": true,
          "internalType": "address",
          "name": "_bankAddress",
          "type": "address"
        },
        {
          "indexed": false,
          "internalType": "string",
          "name": "_bankName",
          "type": "string"
        },
        {
          "indexed": false,
          "internalType": "bool",
          "name": "_isAllowedToVote",
          "type": "bool"
        }
      ],
      "name": "BankModified",
      "type": "event"
    },
    {
      "anonymous": false,
      "inputs": [
        {
          "indexed": true,
          "internalType": "address",
          "name": "_by",
          "type": "address"
        },
        {
          "indexed": true,
          "internalType": "address",
          "name": "_bankAddress",
          "type": "address"
        },
        {
          "indexed": false,
          "internalType": "string",
          "name": "_bankName",
          "type": "string"
        }
      ],
      "name": "BankRemoved",
      "type": "event"
    },
    {
      "anonymous": false,
      "inputs": [
        {
          "indexed": true,
          "internalType": "address",
          "name": "_bankAddress",
          "type": "address"
        },
        {
          "indexed": false,
          "internalType": "bool",
          "name": "_status",
          "type": "bool"
        }
      ],
      "name": "BankStatusUpdated",
      "type": "event"
    },
    {
      "anonymous": false,
      "inputs": [
        {
          "indexed": true,
          "internalType": "address",
          "name": "_bankAddress",
          "type": "address"
        },
        {
          "indexed": false,
          "internalType": "string",
          "name": "_customerName",
          "type": "string"
        },
        {
          "indexed": false,
          "internalType": "bool",
          "name": "isUpVote",
          "type": "bool"
        }
      ],
      "name": "BankVoted",
      "type": "event"
    },
    {
      "anonymous": false,
      "inputs": [
        {
          "indexed": true,
          "internalType": "address",
          "name": "_by",
          "type": "address"
        },
        {
          "indexed": false,
          "internalType": "string",
          "name": "_customerName",
          "type": "string"
        }
      ],
      "name": "CustomerAdded",
      "type": "event"
    },
    {
      "anonymous": false,
      "inputs": [
        {
          "indexed": true,
          "internalType": "address",
          "name": "_by",
          "type": "address"
        },
        {
          "indexed": false,
          "internalType": "string",
          "name": "_customerName",
          "type": "string"
        }
      ],
      "name": "CustomerModified",
      "type": "event"
    },
    {
      "anonymous": false,
      "inputs": [
        {
          "indexed": true,
          "internalType": "address",
          "name": "_by",
          "type": "address"
        },
        {
          "indexed": false,
          "internalType": "string",
          "name": "_customerName",
          "type": "string"
        }
      ],
      "name": "KYCRequestAdded",
      "type": "event"
    },
    {
      "anonymous": false,
      "inputs": [
        {
          "indexed": true,
          "internalType": "address",
          "name": "_by",
          "type": "address"
        },
        {
          "indexed": false,
          "internalType": "string",
          "name": "_customerName",
          "type": "string"
        }
      ],
      "name": "KYCRequestRemoved",
      "type": "event"
    },
    {
      "anonymous": false,
      "inputs": [
        {
          "indexed": false,
          "internalType": "string",
          "name": "_customerName",
          "type": "string"
        },
        {
          "indexed": false,
          "internalType": "bool",
          "name": "_status",
          "type": "bool"
        }
      ],
      "name": "KYCStatusUpdated",
      "type": "event"
    },
    {
      "inputs": [
        {
          "internalType": "string",
          "name": "_bankName",
          "type": "string"
        },
        {
          "internalType": "address",
          "name": "_bankAddress",
          "type": "address"
        },
        {
          "internalType": "string",
          "name": "_regNumber",
          "type": "string"
        }
      ],
      "name": "addBank",
      "outputs": [
        {
          "internalType": "bool",
          "name": "",
          "type": "bool"
        }
      ],
      "stateMutability": "nonpayable",
      "type": "function"
    },
    {
      "inputs": [
        {
          "internalType": "address",
          "name": "_bankAddress",
          "type": "address"
        },
        {
          "internalType": "bool",
          "name": "_isAllowedToVote",
          "type": "bool"
        }
      ],
      "name": "modifyBankIsAllowedToVote",
      "outputs": [
        {
          "internalType": "bool",
          "name": "",
          "type": "bool"
        }
      ],
      "stateMutability": "nonpayable",
      "type": "function"
    },
    {
      "inputs": [
        {
          "internalType": "address",
          "name": "_bankAddress",
          "type": "address"
        }
      ],
      "name": "removeBank",
      "outputs": [
        {
          "internalType": "bool",
          "name": "",
          "type": "bool"
        }
      ],
      "stateMutability": "nonpayable",
      "type": "function"
    },
    {
      "inputs": [
        {
          "internalType": "string",
          "name": "_customerName",
          "type": "string"
        },
        {
          "internalType": "string",
          "name": "_customerData",
          "type": "string"
        }
      ],
      "name": "addCustomer",
      "outputs": [
        {
          "internalType": "bool",
          "name": "",
          "type": "bool"
        }
      ],
      "stateMutability": "nonpayable",
      "type": "function"
    },
    {
      "inputs": [
        {
          "internalType": "string",
          "name": "_customerName",
          "type": "string"
        }
      ],
      "name": "viewCustomer",
      "outputs": [
        {
          "internalType": "string",
          "name": "",
          "type": "string"
        },
        {
          "internalType": "string",
          "name": "",
          "type": "string"
        },
        {
          "internalType": "address",
          "name": "",
          "type": "address"
        },
        {
          "internalType": "bool",
          "name": "",
          "type": "bool"
        },
        {
          "internalType": "uint256",
          "name": "",
          "type": "uint256"
        },
        {
          "internalType": "uint256",
          "name": "",
          "type": "uint256"
        }
      ],
      "stateMutability": "view",
      "type": "function",
      "constant": true
    },
    {
      "inputs": [
        {
          "internalType": "string",
          "name": "_customerName",
          "type": "string"
        },
        {
          "internalType": "string",
          "name": "_newCustomerData",
          "type": "string"
        }
      ],
      "name": "modifyCustomer",
      "outputs": [],
      "stateMutability": "nonpayable",
      "type": "function"
    },
    {
      "inputs": [
        {
          "internalType": "string",
          "name": "_customerName",
          "type": "string"
        },
        {
          "internalType": "string",
          "name": "_customerDataHash",
          "type": "string"
        }
      ],
      "name": "addRequest",
      "outputs": [
        {
          "internalType": "bool",
          "name": "",
          "type": "bool"
        }
      ],
      "stateMutability": "nonpayable",
      "type": "function"
    },
    {
      "inputs": [
        {
          "internalType": "string",
          "name": "_customerName",
          "type": "string"
        }
      ],
      "name": "removeRequest",
      "outputs": [
        {
          "internalType": "bool",
          "name": "",
          "type": "bool"
        }
      ],
      "stateMutability": "nonpayable",
      "type": "function"
    },
    {
      "inputs": [
        {
          "internalType": "string",
          "name": "_customerName",
          "type": "string"
        }
      ],
      "name": "upVoteCustomer",
      "outputs": [
        {
          "internalType": "bool",
          "name": "",
          "type": "bool"
        }
      ],
      "stateMutability": "nonpayable",
      "type": "function"
    },
    {
      "inputs": [
        {
          "internalType": "string",
          "name": "_customerName",
          "type": "string"
        }
      ],
      "name": "downVoteCustomer",
      "outputs": [
        {
          "internalType": "bool",
          "name": "",
          "type": "bool"
        }
      ],
      "stateMutability": "nonpayable",
      "type": "function"
    },
    {
      "inputs": [
        {
          "internalType": "address",
          "name": "_bankAddress",
          "type": "address"
        }
      ],
      "name": "getBankComplaintsCount",
      "outputs": [
        {
          "internalType": "uint256",
          "name": "",
          "type": "uint256"
        }
      ],
      "stateMutability": "view",
      "type": "function",
      "constant": true
    }
  ],
  "bytecode": "0x608060405234801561001057600080fd5b50336000806101000a81548173ffffffffffffffffffffffffffffffffffffffff021916908373ffffffffffffffffffffffffffffffffffffffff160217905550613639806100606000396000f3fe608060405234801561001057600080fd5b50600436106100a95760003560e01c80637c5f5ffd116100715780637c5f5ffd146101a357806382e0438a146101d35780639649650c14610203578063b9da4af814610233578063ccfa8e7114610263578063f72860ca14610293576100a9565b8063107925bb146100ae57806314e7fbcb146100e35780633190abc014610113578063569e64bc146101435780636cba00e614610173575b600080fd5b6100c860048036038101906100c3919061284c565b6102af565b6040516100da96959493929190612992565b60405180910390f35b6100fd60048036038101906100f89190612a2d565b61058d565b60405161010a9190612a5a565b60405180910390f35b61012d60048036038101906101289190612a75565b610739565b60405161013a9190612aed565b60405180910390f35b61015d6004803603810190610158919061284c565b610a69565b60405161016a9190612aed565b60405180910390f35b61018d6004803603810190610188919061284c565b610d10565b60405161019a9190612aed565b60405180910390f35b6101bd60048036038101906101b89190612b34565b610eab565b6040516101ca9190612aed565b60405180910390f35b6101ed60048036038101906101e8919061284c565b611119565b6040516101fa9190612aed565b60405180910390f35b61021d60048036038101906102189190612a2d565b6113ca565b60405161022a9190612aed565b60405180910390f35b61024d60048036038101906102489190612a75565b61172f565b60405161025a9190612aed565b60405180910390f35b61027d60048036038101906102789190612b74565b611b27565b60405161028a9190612aed565b60405180910390f35b6102ad60048036038101906102a89190612a75565b611f2a565b005b606080600080600080600073ffffffffffffffffffffffffffffffffffffffff166002886040516102e09190612c3b565b908152602001604051809103902060020160009054906101000a900473ffffffffffffffffffffffffffffffffffffffff1673ffffffffffffffffffffffffffffffffffffffff161415610369576040517f08c379a000000000000000000000000000000000000000000000000000000000815260040161036090612cc4565b60405180910390fd5b6002876040516103799190612c3b565b908152602001604051809103902060000160028860405161039a9190612c3b565b90815260200160405180910390206001016002896040516103bb9190612c3b565b908152602001604051809103902060020160009054906101000a900473ffffffffffffffffffffffffffffffffffffffff1660028a6040516103fd9190612c3b565b908152602001604051809103902060020160149054906101000a900460ff1660028b60405161042c9190612c3b565b90815260200160405180910390206003015460028c60405161044e9190612c3b565b90815260200160405180910390206004015485805461046c90612d13565b80601f016020809104026020016040519081016040528092919081815260200182805461049890612d13565b80156104e55780601f106104ba576101008083540402835291602001916104e5565b820191906000526020600020905b8154815290600101906020018083116104c857829003601f168201915b505050505095508480546104f890612d13565b80601f016020809104026020016040519081016040528092919081815260200182805461052490612d13565b80156105715780601f1061054657610100808354040283529160200191610571565b820191906000526020600020905b81548152906001019060200180831161055457829003601f168201915b5050505050945095509550955095509550955091939550919395565b60003373ffffffffffffffffffffffffffffffffffffffff1660008054906101000a900473ffffffffffffffffffffffffffffffffffffffff1673ffffffffffffffffffffffffffffffffffffffff161461061d576040517f08c379a000000000000000000000000000000000000000000000000000000000815260040161061490612db7565b60405180910390fd5b600073ffffffffffffffffffffffffffffffffffffffff16600360008473ffffffffffffffffffffffffffffffffffffffff1673ffffffffffffffffffffffffffffffffffffffff16815260200190815260200160002060010160009054906101000a900473ffffffffffffffffffffffffffffffffffffffff1673ffffffffffffffffffffffffffffffffffffffff1614156106ef576040517f08c379a00000000000000000000000000000000000000000000000000000000081526004016106e690612e23565b60405180910390fd5b600360008373ffffffffffffffffffffffffffffffffffffffff1673ffffffffffffffffffffffffffffffffffffffff168152602001908152602001600020600301549050919050565b6000338073ffffffffffffffffffffffffffffffffffffffff16600360008373ffffffffffffffffffffffffffffffffffffffff1673ffffffffffffffffffffffffffffffffffffffff16815260200190815260200160002060010160009054906101000a900473ffffffffffffffffffffffffffffffffffffffff1673ffffffffffffffffffffffffffffffffffffffff161461080c576040517f08c379a000000000000000000000000000000000000000000000000000000000815260040161080390612e8f565b60405180910390fd5b600073ffffffffffffffffffffffffffffffffffffffff166002856040516108349190612c3b565b908152602001604051809103902060020160009054906101000a900473ffffffffffffffffffffffffffffffffffffffff1673ffffffffffffffffffffffffffffffffffffffff16146108bc576040517f08c379a00000000000000000000000000000000000000000000000000000000081526004016108b390612f47565b60405180910390fd5b836002856040516108cd9190612c3b565b908152602001604051809103902060000190805190602001906108f19291906125ee565b50826002856040516109039190612c3b565b908152602001604051809103902060010190805190602001906109279291906125ee565b50336002856040516109399190612c3b565b908152602001604051809103902060020160006101000a81548173ffffffffffffffffffffffffffffffffffffffff021916908373ffffffffffffffffffffffffffffffffffffffff160217905550600060028560405161099a9190612c3b565b908152602001604051809103902060020160146101000a81548160ff02191690831515021790555060006002856040516109d49190612c3b565b90815260200160405180910390206003018190555060006002856040516109fb9190612c3b565b9081526020016040518091039020600401819055503373ffffffffffffffffffffffffffffffffffffffff167f2ca4013d205e98e6d17064d457e517852f176874b780bda762e655e9ed5eaa0285604051610a569190612f67565b60405180910390a2600191505092915050565b60008073ffffffffffffffffffffffffffffffffffffffff16600483604051610a929190612c3b565b908152602001604051809103902060020160009054906101000a900473ffffffffffffffffffffffffffffffffffffffff1673ffffffffffffffffffffffffffffffffffffffff161415610b1b576040517f08c379a0000000000000000000000000000000000000000000000000000000008152600401610b1290612ffb565b60405180910390fd5b610b25823361224f565b15610b65576040517f08c379a0000000000000000000000000000000000000000000000000000000008152600401610b5c9061308d565b60405180910390fd5b600360003373ffffffffffffffffffffffffffffffffffffffff1673ffffffffffffffffffffffffffffffffffffffff16815260200190815260200160002060050160009054906101000a900460ff16610bf4576040517f08c379a0000000000000000000000000000000000000000000000000000000008152600401610beb906130f9565b60405180910390fd5b600582604051610c049190612c3b565b9081526020016040518091039020339080600181540180825580915050600190039060005260206000200160009091909190916101000a81548173ffffffffffffffffffffffffffffffffffffffff021916908373ffffffffffffffffffffffffffffffffffffffff1602179055506001600283604051610c859190612c3b565b90815260200160405180910390206003016000828254610ca59190613148565b925050819055503373ffffffffffffffffffffffffffffffffffffffff167fb23387040d2f201fbd8e3d39a73a0c7a3d4a94fc6109451658510cd696936173836001604051610cf592919061319e565b60405180910390a2610d0682612337565b5060019050919050565b60008073ffffffffffffffffffffffffffffffffffffffff16600483604051610d399190612c3b565b908152602001604051809103902060020160009054906101000a900473ffffffffffffffffffffffffffffffffffffffff1673ffffffffffffffffffffffffffffffffffffffff161415610dc2576040517f08c379a0000000000000000000000000000000000000000000000000000000008152600401610db990612ffb565b60405180910390fd5b600482604051610dd29190612c3b565b908152602001604051809103902060008082016000610df19190612674565b600182016000610e019190612674565b6002820160006101000a81549073ffffffffffffffffffffffffffffffffffffffff02191690555050600582604051610e3a9190612c3b565b90815260200160405180910390206000610e5491906126b4565b3373ffffffffffffffffffffffffffffffffffffffff167f72fc6e6f47eb6173cd5b2744636919590924d0613fdef7fd36ca17ebd57a29f083604051610e9a9190612f67565b60405180910390a260019050919050565b60003373ffffffffffffffffffffffffffffffffffffffff1660008054906101000a900473ffffffffffffffffffffffffffffffffffffffff1673ffffffffffffffffffffffffffffffffffffffff1614610f3b576040517f08c379a0000000000000000000000000000000000000000000000000000000008152600401610f3290612db7565b60405180910390fd5b600073ffffffffffffffffffffffffffffffffffffffff16600360008573ffffffffffffffffffffffffffffffffffffffff1673ffffffffffffffffffffffffffffffffffffffff16815260200190815260200160002060010160009054906101000a900473ffffffffffffffffffffffffffffffffffffffff1673ffffffffffffffffffffffffffffffffffffffff16141561100d576040517f08c379a000000000000000000000000000000000000000000000000000000000815260040161100490613240565b60405180910390fd5b81600360008573ffffffffffffffffffffffffffffffffffffffff1673ffffffffffffffffffffffffffffffffffffffff16815260200190815260200160002060050160006101000a81548160ff0219169083151502179055508273ffffffffffffffffffffffffffffffffffffffff163373ffffffffffffffffffffffffffffffffffffffff167f2a05ad87559d64b4ad8c928e34e3b5ec43cc18559ac4d7c9f0d54a9ae3f82faa600360008773ffffffffffffffffffffffffffffffffffffffff1673ffffffffffffffffffffffffffffffffffffffff168152602001908152602001600020600001856040516111079291906132f5565b60405180910390a36001905092915050565b60008073ffffffffffffffffffffffffffffffffffffffff166004836040516111429190612c3b565b908152602001604051809103902060020160009054906101000a900473ffffffffffffffffffffffffffffffffffffffff1673ffffffffffffffffffffffffffffffffffffffff1614156111cb576040517f08c379a00000000000000000000000000000000000000000000000000000000081526004016111c290612ffb565b60405180910390fd5b6111d5823361224f565b15611215576040517f08c379a000000000000000000000000000000000000000000000000000000000815260040161120c9061308d565b60405180910390fd5b600360003373ffffffffffffffffffffffffffffffffffffffff1673ffffffffffffffffffffffffffffffffffffffff16815260200190815260200160002060050160009054906101000a900460ff166112a4576040517f08c379a000000000000000000000000000000000000000000000000000000000815260040161129b906130f9565b60405180910390fd5b6005826040516112b49190612c3b565b9081526020016040518091039020339080600181540180825580915050600190039060005260206000200160009091909190916101000a81548173ffffffffffffffffffffffffffffffffffffffff021916908373ffffffffffffffffffffffffffffffffffffffff16021790555060016002836040516113359190612c3b565b908152602001604051809103902060040160008282546113559190613148565b925050819055503373ffffffffffffffffffffffffffffffffffffffff167fb23387040d2f201fbd8e3d39a73a0c7a3d4a94fc6109451658510cd6969361738360006040516113a592919061319e565b60405180910390a26113b682612337565b506113c082612430565b5060019050919050565b60003373ffffffffffffffffffffffffffffffffffffffff1660008054906101000a900473ffffffffffffffffffffffffffffffffffffffff1673ffffffffffffffffffffffffffffffffffffffff161461145a576040517f08c379a000000000000000000000000000000000000000000000000000000000815260040161145190612db7565b60405180910390fd5b600073ffffffffffffffffffffffffffffffffffffffff16600360008473ffffffffffffffffffffffffffffffffffffffff1673ffffffffffffffffffffffffffffffffffffffff16815260200190815260200160002060010160009054906101000a900473ffffffffffffffffffffffffffffffffffffffff1673ffffffffffffffffffffffffffffffffffffffff16141561152c576040517f08c379a000000000000000000000000000000000000000000000000000000000815260040161152390613240565b60405180910390fd5b6000600360008473ffffffffffffffffffffffffffffffffffffffff1673ffffffffffffffffffffffffffffffffffffffff168152602001908152602001600020600001805461157b90612d13565b80601f01602080910402602001604051908101604052809291908181526020018280546115a790612d13565b80156115f45780601f106115c9576101008083540402835291602001916115f4565b820191906000526020600020905b8154815290600101906020018083116115d757829003601f168201915b50505050509050600360008473ffffffffffffffffffffffffffffffffffffffff1673ffffffffffffffffffffffffffffffffffffffff1681526020019081526020016000206000808201600061164b9190612674565b6001820160006101000a81549073ffffffffffffffffffffffffffffffffffffffff02191690556002820160006116829190612674565b600382016000905560048201600090556005820160006101000a81549060ff02191690555050600160008154809291906116bb90613325565b91905055508273ffffffffffffffffffffffffffffffffffffffff163373ffffffffffffffffffffffffffffffffffffffff167f31dbbb45faab9d59505706caddf070b686ad8acce5ce95daf528f2706ea89cb38360405161171d9190612f67565b60405180910390a36001915050919050565b6000338073ffffffffffffffffffffffffffffffffffffffff16600360008373ffffffffffffffffffffffffffffffffffffffff1673ffffffffffffffffffffffffffffffffffffffff16815260200190815260200160002060010160009054906101000a900473ffffffffffffffffffffffffffffffffffffffff1673ffffffffffffffffffffffffffffffffffffffff1614611802576040517f08c379a00000000000000000000000000000000000000000000000000000000081526004016117f990612e8f565b60405180910390fd5b600073ffffffffffffffffffffffffffffffffffffffff1660028560405161182a9190612c3b565b908152602001604051809103902060020160009054906101000a900473ffffffffffffffffffffffffffffffffffffffff1673ffffffffffffffffffffffffffffffffffffffff1614156118b3576040517f08c379a00000000000000000000000000000000000000000000000000000000081526004016118aa906133c1565b60405180910390fd5b600073ffffffffffffffffffffffffffffffffffffffff166004856040516118db9190612c3b565b908152602001604051809103902060020160009054906101000a900473ffffffffffffffffffffffffffffffffffffffff1673ffffffffffffffffffffffffffffffffffffffff1614611963576040517f08c379a000000000000000000000000000000000000000000000000000000000815260040161195a90613479565b60405180910390fd5b60006002856040516119759190612c3b565b908152602001604051809103902060020160009054906101000a900473ffffffffffffffffffffffffffffffffffffffff169050600360008273ffffffffffffffffffffffffffffffffffffffff1673ffffffffffffffffffffffffffffffffffffffff16815260200190815260200160002060040160008154809291906119fc90613499565b919050555084600486604051611a129190612c3b565b90815260200160405180910390206000019080519060200190611a369291906125ee565b5083600485604051611a489190612c3b565b90815260200160405180910390206001019080519060200190611a6c9291906125ee565b5033600486604051611a7e9190612c3b565b908152602001604051809103902060020160006101000a81548173ffffffffffffffffffffffffffffffffffffffff021916908373ffffffffffffffffffffffffffffffffffffffff1602179055503373ffffffffffffffffffffffffffffffffffffffff167fe7c6c64b13743b4a9adca7ff12451a79b3021536bea89c0b47f735d7f8705dd286604051611b139190612f67565b60405180910390a260019250505092915050565b60003373ffffffffffffffffffffffffffffffffffffffff1660008054906101000a900473ffffffffffffffffffffffffffffffffffffffff1673ffffffffffffffffffffffffffffffffffffffff1614611bb7576040517f08c379a0000000000000000000000000000000000000000000000000000000008152600401611bae90612db7565b60405180910390fd5b600073ffffffffffffffffffffffffffffffffffffffff16600360008573ffffffffffffffffffffffffffffffffffffffff1673ffffffffffffffffffffffffffffffffffffffff16815260200190815260200160002060010160009054906101000a900473ffffffffffffffffffffffffffffffffffffffff1673ffffffffffffffffffffffffffffffffffffffff1614611c88576040517f08c379a0000000000000000000000000000000000000000000000000000000008152600401611c7f90613554565b60405180910390fd5b83600360008573ffffffffffffffffffffffffffffffffffffffff1673ffffffffffffffffffffffffffffffffffffffff1681526020019081526020016000206000019080519060200190611cde9291906125ee565b5082600360008573ffffffffffffffffffffffffffffffffffffffff1673ffffffffffffffffffffffffffffffffffffffff16815260200190815260200160002060010160006101000a81548173ffffffffffffffffffffffffffffffffffffffff021916908373ffffffffffffffffffffffffffffffffffffffff16021790555081600360008573ffffffffffffffffffffffffffffffffffffffff1673ffffffffffffffffffffffffffffffffffffffff1681526020019081526020016000206002019080519060200190611db69291906125ee565b506000600360008573ffffffffffffffffffffffffffffffffffffffff1673ffffffffffffffffffffffffffffffffffffffff168152602001908152602001600020600301819055506001600360008573ffffffffffffffffffffffffffffffffffffffff1673ffffffffffffffffffffffffffffffffffffffff16815260200190815260200160002060050160006101000a81548160ff0219169083151502179055506000600360008573ffffffffffffffffffffffffffffffffffffffff1673ffffffffffffffffffffffffffffffffffffffff1681526020019081526020016000206004018190555060016000815480929190611eb590613499565b91905055508273ffffffffffffffffffffffffffffffffffffffff163373ffffffffffffffffffffffffffffffffffffffff167fb9cd646b3bef915550a5e8349d9f9c1dd396f479ce1020a169370162c2bfde3686604051611f179190612f67565b60405180910390a3600190509392505050565b338073ffffffffffffffffffffffffffffffffffffffff16600360008373ffffffffffffffffffffffffffffffffffffffff1673ffffffffffffffffffffffffffffffffffffffff16815260200190815260200160002060010160009054906101000a900473ffffffffffffffffffffffffffffffffffffffff1673ffffffffffffffffffffffffffffffffffffffff1614611ffb576040517f08c379a0000000000000000000000000000000000000000000000000000000008152600401611ff290612e8f565b60405180910390fd5b600073ffffffffffffffffffffffffffffffffffffffff166002846040516120239190612c3b565b908152602001604051809103902060020160009054906101000a900473ffffffffffffffffffffffffffffffffffffffff1673ffffffffffffffffffffffffffffffffffffffff1614156120ac576040517f08c379a00000000000000000000000000000000000000000000000000000000081526004016120a390612cc4565b60405180910390fd5b6004836040516120bc9190612c3b565b9081526020016040518091039020600080820160006120db9190612674565b6001820160006120eb9190612674565b6002820160006101000a81549073ffffffffffffffffffffffffffffffffffffffff021916905550506005836040516121249190612c3b565b9081526020016040518091039020600061213e91906126b4565b8160028460405161214f9190612c3b565b908152602001604051809103902060010190805190602001906121739291906125ee565b5060006002846040516121869190612c3b565b908152602001604051809103902060020160146101000a81548160ff02191690831515021790555060006002846040516121c09190612c3b565b90815260200160405180910390206003018190555060006002846040516121e79190612c3b565b9081526020016040518091039020600401819055503373ffffffffffffffffffffffffffffffffffffffff167fa7a0695686a26821c142cbd2a7c09c18ce8679b9281c1e485fa80a4226d9712b846040516122429190612f67565b60405180910390a2505050565b6000806000905060005b6005856040516122699190612c3b565b90815260200160405180910390208054905081101561232c576005856040516122929190612c3b565b908152602001604051809103902081815481106122b2576122b1613574565b5b9060005260206000200160009054906101000a900473ffffffffffffffffffffffffffffffffffffffff1673ffffffffffffffffffffffffffffffffffffffff168473ffffffffffffffffffffffffffffffffffffffff161415612319576001915061232c565b808061232490613499565b915050612259565b508091505092915050565b60008060028360405161234a9190612c3b565b908152602001604051809103902060030154905060006002846040516123709190612c3b565b908152602001604051809103902060040154905060008183119050600560015411156123b25760036001546123a591906135d2565b8211156123b157600090505b5b806002866040516123c39190612c3b565b908152602001604051809103902060020160146101000a81548160ff0219169083151502179055507fc8385a89be65d06e8e1726b28cdc9ef3fca419e74bc483b0edb939c54e2675c6858260405161241c92919061319e565b60405180910390a160019350505050919050565b6000806002836040516124439190612c3b565b908152602001604051809103902060020160009054906101000a900473ffffffffffffffffffffffffffffffffffffffff169050600360008273ffffffffffffffffffffffffffffffffffffffff1673ffffffffffffffffffffffffffffffffffffffff16815260200190815260200160002060030160008154809291906124ca90613499565b91905055506000600360008373ffffffffffffffffffffffffffffffffffffffff1673ffffffffffffffffffffffffffffffffffffffff168152602001908152602001600020600301549050600560015411156125e357600360015461253091906135d2565b8111156125e2576000600360008473ffffffffffffffffffffffffffffffffffffffff1673ffffffffffffffffffffffffffffffffffffffff16815260200190815260200160002060050160006101000a81548160ff0219169083151502179055508173ffffffffffffffffffffffffffffffffffffffff167fe8db74f28f5d28933496fe6d99ff422d0ccd16056a64d56f914fb0477a4a7dd860006040516125d99190612aed565b60405180910390a25b5b600192505050919050565b8280546125fa90612d13565b90600052602060002090601f01602090048101928261261c5760008555612663565b82601f1061263557805160ff1916838001178555612663565b82800160010185558215612663579182015b82811115612662578251825591602001919060010190612647565b5b50905061267091906126d5565b5090565b50805461268090612d13565b6000825580601f1061269257506126b1565b601f0160209004906000526020600020908101906126b091906126d5565b5b50565b50805460008255906000526020600020908101906126d291906126d5565b50565b5b808211156126ee5760008160009055506001016126d6565b5090565b6000604051905090565b600080fd5b600080fd5b600080fd5b600080fd5b6000601f19601f8301169050919050565b7f4e487b7100000000000000000000000000000000000000000000000000000000600052604160045260246000fd5b61275982612710565b810181811067ffffffffffffffff8211171561277857612777612721565b5b80604052505050565b600061278b6126f2565b90506127978282612750565b919050565b600067ffffffffffffffff8211156127b7576127b6612721565b5b6127c082612710565b9050602081019050919050565b82818337600083830152505050565b60006127ef6127ea8461279c565b612781565b90508281526020810184848401111561280b5761280a61270b565b5b6128168482856127cd565b509392505050565b600082601f83011261283357612832612706565b5b81356128438482602086016127dc565b91505092915050565b600060208284031215612862576128616126fc565b5b600082013567ffffffffffffffff8111156128805761287f612701565b5b61288c8482850161281e565b91505092915050565b600081519050919050565b600082825260208201905092915050565b60005b838110156128cf5780820151818401526020810190506128b4565b838111156128de576000848401525b50505050565b60006128ef82612895565b6128f981856128a0565b93506129098185602086016128b1565b61291281612710565b840191505092915050565b600073ffffffffffffffffffffffffffffffffffffffff82169050919050565b60006129488261291d565b9050919050565b6129588161293d565b82525050565b60008115159050919050565b6129738161295e565b82525050565b6000819050919050565b61298c81612979565b82525050565b600060c08201905081810360008301526129ac81896128e4565b905081810360208301526129c081886128e4565b90506129cf604083018761294f565b6129dc606083018661296a565b6129e96080830185612983565b6129f660a0830184612983565b979650505050505050565b612a0a8161293d565b8114612a1557600080fd5b50565b600081359050612a2781612a01565b92915050565b600060208284031215612a4357612a426126fc565b5b6000612a5184828501612a18565b91505092915050565b6000602082019050612a6f6000830184612983565b92915050565b60008060408385031215612a8c57612a8b6126fc565b5b600083013567ffffffffffffffff811115612aaa57612aa9612701565b5b612ab68582860161281e565b925050602083013567ffffffffffffffff811115612ad757612ad6612701565b5b612ae38582860161281e565b9150509250929050565b6000602082019050612b02600083018461296a565b92915050565b612b118161295e565b8114612b1c57600080fd5b50565b600081359050612b2e81612b08565b92915050565b60008060408385031215612b4b57612b4a6126fc565b5b6000612b5985828601612a18565b9250506020612b6a85828601612b1f565b9150509250929050565b600080600060608486031215612b8d57612b8c6126fc565b5b600084013567ffffffffffffffff811115612bab57612baa612701565b5b612bb78682870161281e565b9350506020612bc886828701612a18565b925050604084013567ffffffffffffffff811115612be957612be8612701565b5b612bf58682870161281e565b9150509250925092565b600081905092915050565b6000612c1582612895565b612c1f8185612bff565b9350612c2f8185602086016128b1565b80840191505092915050565b6000612c478284612c0a565b915081905092915050565b7f437573746f6d6572206973206e6f742070726573656e7420696e20746865206460008201527f6174616261736500000000000000000000000000000000000000000000000000602082015250565b6000612cae6027836128a0565b9150612cb982612c52565b604082019050919050565b60006020820190508181036000830152612cdd81612ca1565b9050919050565b7f4e487b7100000000000000000000000000000000000000000000000000000000600052602260045260246000fd5b60006002820490506001821680612d2b57607f821691505b60208210811415612d3f57612d3e612ce4565b5b50919050565b7f4f6e6c792061646d696e2063616e20706572666f726d2074686973206f70656160008201527f7274696f6e2e2e2e210000000000000000000000000000000000000000000000602082015250565b6000612da16029836128a0565b9150612dac82612d45565b604082019050919050565b60006020820190508181036000830152612dd081612d94565b9050919050565b7f5370656369666965642062616e6b206973206e6f742070726573656e74000000600082015250565b6000612e0d601d836128a0565b9150612e1882612dd7565b602082019050919050565b60006020820190508181036000830152612e3c81612e00565b9050919050565b7f42616e6b206973206e6f7420617574686f72697a65642e2e2e21000000000000600082015250565b6000612e79601a836128a0565b9150612e8482612e43565b602082019050919050565b60006020820190508181036000830152612ea881612e6c565b9050919050565b7f437573746f6d657220697320616c72656164792070726573656e742c20706c6560008201527f6173652063616c6c206d6f64696679437573746f6d657220746f20656469742060208201527f74686520637573746f6d65722064617461000000000000000000000000000000604082015250565b6000612f316051836128a0565b9150612f3c82612eaf565b606082019050919050565b60006020820190508181036000830152612f6081612f24565b9050919050565b60006020820190508181036000830152612f8181846128e4565b905092915050565b7f4b5943205265717565737420666f722074686520637573746f6d65722069732060008201527f6e6f742070726573656e74000000000000000000000000000000000000000000602082015250565b6000612fe5602b836128a0565b9150612ff082612f89565b604082019050919050565b6000602082019050818103600083015261301481612fd8565b9050919050565b7f5468652062616e6b2068617320616c726561647920766f74656420666f72207460008201527f686520637573746f6d6572000000000000000000000000000000000000000000602082015250565b6000613077602b836128a0565b91506130828261301b565b604082019050919050565b600060208201905081810360008301526130a68161306a565b9050919050565b7f62616e6b206973206e6f7420616c6c6f77656420746f20766f74650000000000600082015250565b60006130e3601b836128a0565b91506130ee826130ad565b602082019050919050565b60006020820190508181036000830152613112816130d6565b9050919050565b7f4e487b7100000000000000000000000000000000000000000000000000000000600052601160045260246000fd5b600061315382612979565b915061315e83612979565b9250827fffffffffffffffffffffffffffffffffffffffffffffffffffffffffffffffff0382111561319357613192613119565b5b828201905092915050565b600060408201905081810360008301526131b881856128e4565b90506131c7602083018461296a565b9392505050565b7f546869732062616e6b206973206e6f742070726573656e7420696e206c69737460008201527f206f6620617574686f72697a65642062616e6b73000000000000000000000000602082015250565b600061322a6034836128a0565b9150613235826131ce565b604082019050919050565b600060208201905081810360008301526132598161321d565b9050919050565b60008190508160005260206000209050919050565b6000815461328281612d13565b61328c81866128a0565b945060018216600081146132a757600181146132b9576132ec565b60ff19831686526020860193506132ec565b6132c285613260565b60005b838110156132e4578154818901526001820191506020810190506132c5565b808801955050505b50505092915050565b6000604082019050818103600083015261330f8185613275565b905061331e602083018461296a565b9392505050565b600061333082612979565b9150600082141561334457613343613119565b5b600182039050919050565b7f54686520637573746f6d6572206973206e6f742070726573656e7420696e206360008201527f7573746f6d657273206c69737400000000000000000000000000000000000000602082015250565b60006133ab602d836128a0565b91506133b68261334f565b604082019050919050565b600060208201905081810360008301526133da8161339e565b9050919050565b7f4b5943205265717565737420666f722074686520637573746f6d65722069732060008201527f616c726561647920726563656976656420616e6420697320696e2070726f636560208201527f73732e2e2e000000000000000000000000000000000000000000000000000000604082015250565b60006134636045836128a0565b915061346e826133e1565b606082019050919050565b6000602082019050818103600083015261349281613456565b9050919050565b60006134a482612979565b91507fffffffffffffffffffffffffffffffffffffffffffffffffffffffffffffffff8214156134d7576134d6613119565b5b600182019050919050565b7f546869732062616e6b20697320616c72656164792070726573656e742061732060008201527f617574686f72697a65642062616e6b0000000000000000000000000000000000602082015250565b600061353e602f836128a0565b9150613549826134e2565b604082019050919050565b6000602082019050818103600083015261356d81613531565b9050919050565b7f4e487b7100000000000000000000000000000000000000000000000000000000600052603260045260246000fd5b7f4e487b7100000000000000000000000000000000000000000000000000000000600052601260045260246000fd5b60006135dd82612979565b91506135e883612979565b9250826135f8576135f76135a3565b5b82820490509291505056fea26469706673582212203d28e13546d06094382f7e6574161d7f59ad628d5d6562fadf8c5cb86ca662c464736f6c634300080b0033",
  "immutableReferences": {},
  "source": "// SPDX-License-Identifier: FTL\npragma solidity ^0.8.0;\n// Author: Pankaj Mahadik\n/** \nThe overall logic and flow is as below:\n\nThe KYC contract has 3 major entieis: Customer, Bank and KYCRequest.\n\nThe deployer of the contract will get stored as admin user. This admin user is the only address who is allowed to add banks, remove banks\nand modify the banks that are authorized to add and validate the KYC of customers.\n\nBanks will collect the information of a customer and will call addCustomer function to add it to customers list.\nThen the bank will call addRequest function so that all banks can verify and then register their vote (upVote or downVote) for this request.\nOne bank can vote (either upVote or downVote) only once for a customer.\n\nmodifyCustomer function will get called If some documents are updated for a customer and need to reinitiate the KYC process.\nThis will reset the earlier verification status upVote, downVote\n\nThe KYC status of customer is marked as verified if the count of upVotes is greater than the downVotes.\nKYC status will makred as false in following 2 scenarios: \ni) if the count of downVotes is greater than upVotes\nii) if the count of downVotes is greater than 1/3 of the number of banks participating in the KYC process.\n\nIt assumes at least 6 banks are participating in the KYC process to evaluate the full functionality.\n\nIf the customer verification fails, the complaint count for the bank that has initiated the request will raised by one.\nIf the complaints count for a bank is greater than 1/3 of the total number of banks, then bank will be banned from the KYC process and cannot add it's vote.\n\nVarious events are defined, and they will get emitted when corresponding functionality will get executed\n**/\n\ncontract KYC {\n    //struct to define Customer entity\n    struct Customer {\n        string name; //name of customer, this is assumed to be unique.\n        string data; //customer data\n        address bankAddress; //address of bank that collects the customer data and initiates the verification request.\n        bool kycStatus; // KYC status of customer if verified or not.\n        uint256 upVotes; // number of banks that voted positively for the customer.\n        uint256 downVotes; // number of banks that voted negatively for the customer.\n    }\n\n    //struct to define Bank entity\n    struct Bank {\n        string name; // name of bank\n        address ethAddress; // address of bank\n        string regNumber; // registration number of the bank\n        uint256 complaintsReported; // number of complaints against the bank. If the customer KYC fails, the complaint count raised by one.\n        uint256 kycRequestsInitiatedCount; // number of total kyc requests that a bank has initiated\n        bool isAllowedToVote; // if the complaints count is more than 1/3 of the total number of banks, then the bank is banned from voting process.\n    }\n\n    //struct to define KYCRequest entity\n    struct KYCRequest {\n        string customerName; // name of customer which is unique\n        string customerDataHash; //hash of link of customer data\n        address bankAddress; //address of bank that initiated the request\n    }\n\n    // admin to hold the address of the deployer account\n    address private admin;\n\n    // to hold total number of banks in KYC process.\n    uint256 private banksCount;\n\n    // mapping to hold customer name and actual customer object\n    mapping(string => Customer) private customersMapping;\n\n    // mapping of address and bank object\n    mapping(address => Bank) private banksMapping;\n\n    // mapping of customer name and it's KYV verification request\n    mapping(string => KYCRequest) private requestsMapping;\n\n    // mapping of customer name and list of banks that have already voted for it.\n    // this is used to avoid duplicate voting.\n    mapping(string => address[]) private customerBankVotingArr;\n\n    // event to be emitted when admin adds a bank\n    event BankAdded(\n        address indexed _by,\n        address indexed _bankAddress,\n        string _bankName\n    );\n\n    // event to be emitted when admin removes a bank\n    event BankRemoved(\n        address indexed _by,\n        address indexed _bankAddress,\n        string _bankName\n    );\n\n    // event to be emitted when admin modifies a bank  like allowed to vote or not\n    event BankModified(\n        address indexed _by,\n        address indexed _bankAddress,\n        string _bankName,\n        bool _isAllowedToVote\n    );\n\n    // event to be emitted when a bank votes (up=true, down=false) for a customer\n    event BankVoted(\n        address indexed _bankAddress,\n        string _customerName,\n        bool isUpVote\n    );\n\n    // event to be emitted when the Bank status is changed\n    event BankStatusUpdated(address indexed _bankAddress, bool _status);\n\n    // event to be emitted when a bank adds a customer\n    event CustomerAdded(address indexed _by, string _customerName);\n\n    // event to be emitted when a bank modifies a customer\n    event CustomerModified(address indexed _by, string _customerName);\n\n    // event to be emitted when bank adds KYC request for a customer\n    event KYCRequestAdded(address indexed _by, string _customerName);\n\n    // event to be emitted when bank removes KYC request for a customer\n    event KYCRequestRemoved(address indexed _by, string _customerName);\n\n    // event to be emitted when the KYC status of a customer is changed\n    event KYCStatusUpdated(string _customerName, bool _status);\n\n    //constructor to initialize the admin address with the address of the deployer.\n    constructor() {\n        admin = msg.sender;\n    }\n\n    // modifier to check if the request initiated by admin address\n    modifier onlyAdmin() {\n        require(\n            admin == msg.sender,\n            \"Only admin can perform this opeartion...!\"\n        );\n        _;\n    }\n\n    // modifier to check if the request initiated by a bank, that is valid for KYC process\n    modifier authorizedBank(address _bankAddress) {\n        require(\n            banksMapping[_bankAddress].ethAddress == _bankAddress,\n            \"Bank is not authorized...!\"\n        );\n        _;\n    }\n\n    // Admin Interface functionalities\n    // Functions to be carried out by admin\n    // function to add a bank to verification process. Only admin can invoke this.\n    function addBank(\n        string memory _bankName,\n        address _bankAddress,\n        string memory _regNumber\n    ) public onlyAdmin returns (bool) {\n        require(\n            banksMapping[_bankAddress].ethAddress == address(0),\n            \"This bank is already present as authorized bank\"\n        );\n        banksMapping[_bankAddress].name = _bankName;\n        banksMapping[_bankAddress].ethAddress = _bankAddress;\n        banksMapping[_bankAddress].regNumber = _regNumber;\n        banksMapping[_bankAddress].complaintsReported = 0;\n        banksMapping[_bankAddress].isAllowedToVote = true;\n        banksMapping[_bankAddress].kycRequestsInitiatedCount = 0;\n        banksCount++;\n        emit BankAdded(msg.sender, _bankAddress, _bankName);\n        return true;\n    }\n\n    // function to allow or disallow a bank from voting. Only admin can invoke this.\n    function modifyBankIsAllowedToVote(\n        address _bankAddress,\n        bool _isAllowedToVote\n    ) public onlyAdmin returns (bool) {\n        require(\n            banksMapping[_bankAddress].ethAddress != address(0),\n            \"This bank is not present in list of authorized banks\"\n        );\n        banksMapping[_bankAddress].isAllowedToVote = _isAllowedToVote;\n        emit BankModified(\n            msg.sender,\n            _bankAddress,\n            banksMapping[_bankAddress].name,\n            _isAllowedToVote\n        );\n        return true;\n    }\n\n    // function to remove a bank from voting process, Only admin can invoke thisl\n    function removeBank(address _bankAddress) public onlyAdmin returns (bool) {\n        require(\n            banksMapping[_bankAddress].ethAddress != address(0),\n            \"This bank is not present in list of authorized banks\"\n        );\n        string memory bankName = banksMapping[_bankAddress].name;\n        delete (banksMapping[_bankAddress]);\n        banksCount--;\n        emit BankRemoved(msg.sender, _bankAddress, bankName);\n        return true;\n    }\n\n    // Bank Interface functionalities\n    //Functions to be carried out by Bank(s)\n    function addCustomer(\n        string memory _customerName,\n        string memory _customerData\n    ) public authorizedBank(msg.sender) returns (bool) {\n        require(\n            customersMapping[_customerName].bankAddress == address(0),\n            \"Customer is already present, please call modifyCustomer to edit the customer data\"\n        );\n        customersMapping[_customerName].name = _customerName;\n        customersMapping[_customerName].data = _customerData;\n        customersMapping[_customerName].bankAddress = msg.sender;\n        customersMapping[_customerName].kycStatus = false;\n        customersMapping[_customerName].upVotes = 0;\n        customersMapping[_customerName].downVotes = 0;\n        emit CustomerAdded(msg.sender, _customerName);\n        return true;\n    }\n\n    function viewCustomer(string memory _customerName)\n        public\n        view\n        returns (\n            string memory,\n            string memory,\n            address,\n            bool,\n            uint256,\n            uint256\n        )\n    {\n        require(\n            customersMapping[_customerName].bankAddress != address(0),\n            \"Customer is not present in the database\"\n        );\n        return (\n            customersMapping[_customerName].name,\n            customersMapping[_customerName].data,\n            customersMapping[_customerName].bankAddress,\n            customersMapping[_customerName].kycStatus,\n            customersMapping[_customerName].upVotes,\n            customersMapping[_customerName].downVotes\n        );\n    }\n\n    function modifyCustomer(\n        string memory _customerName,\n        string memory _newCustomerData\n    ) public authorizedBank(msg.sender) {\n        require(\n            customersMapping[_customerName].bankAddress != address(0),\n            \"Customer is not present in the database\"\n        );\n        delete (requestsMapping[_customerName]);\n        delete (customerBankVotingArr[_customerName]);\n        customersMapping[_customerName].data = _newCustomerData;\n        customersMapping[_customerName].kycStatus = false;\n        customersMapping[_customerName].upVotes = 0;\n        customersMapping[_customerName].downVotes = 0;\n        emit CustomerModified(msg.sender, _customerName);\n    }\n\n    function addRequest(\n        string memory _customerName,\n        string memory _customerDataHash\n    ) public authorizedBank(msg.sender) returns (bool) {\n        // validate that the customer is present in customers list.\n        require(\n            customersMapping[_customerName].bankAddress != address(0),\n            \"The customer is not present in customers list\"\n        );\n\n        // validate that request for the customer is not already exist\n        require(\n            requestsMapping[_customerName].bankAddress == address(0),\n            \"KYC Request for the customer is already received and is in process...\"\n        );\n        //increment the count of requests initiated by the bank\n        address requestInitiatingBank = customersMapping[_customerName]\n            .bankAddress;\n        banksMapping[requestInitiatingBank].kycRequestsInitiatedCount++;\n\n        requestsMapping[_customerName].customerName = _customerName;\n        requestsMapping[_customerDataHash].customerDataHash = _customerDataHash;\n        requestsMapping[_customerName].bankAddress = msg.sender;\n        emit KYCRequestAdded(msg.sender, _customerName);\n        return true;\n    }\n\n    function removeRequest(string memory _customerName) public returns (bool) {\n        require(\n            requestsMapping[_customerName].bankAddress != address(0),\n            \"KYC Request for the customer is not present\"\n        );\n        delete (requestsMapping[_customerName]);\n        delete (customerBankVotingArr[_customerName]);\n        emit KYCRequestRemoved(msg.sender, _customerName);\n        return true;\n    }\n\n    // function to check if a particular bank has voted for a customer request or not\n    function hasBankVoted(string memory _customerName, address _bankAddress)\n        internal\n        view\n        returns (bool)\n    {\n        bool bankVoted = false;\n        for (\n            uint256 i = 0;\n            i < customerBankVotingArr[_customerName].length;\n            i++\n        ) {\n            if (_bankAddress == customerBankVotingArr[_customerName][i]) {\n                bankVoted = true;\n                break;\n            }\n        }\n        return bankVoted;\n    }\n\n    // function to add positive vote in verification process\n    function upVoteCustomer(string memory _customerName) public returns (bool) {\n        // check if customer exists in customers list\n        require(\n            requestsMapping[_customerName].bankAddress != address(0),\n            \"KYC Request for the customer is not present\"\n        );\n\n        // check if bank has already voted for the customer\n        require(\n            !hasBankVoted(_customerName, msg.sender),\n            \"The bank has already voted for the customer\"\n        );\n\n        // check if bank is allowed to vote\n        require(\n            banksMapping[msg.sender].isAllowedToVote,\n            \"bank is not allowed to vote\"\n        );\n\n        customerBankVotingArr[_customerName].push(msg.sender);\n        customersMapping[_customerName].upVotes += 1;\n        emit BankVoted(msg.sender, _customerName, true);\n        updateCustomerKYCStatus(_customerName);\n\n        return true;\n    }\n\n    // function to add negative vote in verification process\n    function downVoteCustomer(string memory _customerName)\n        public\n        returns (bool)\n    {\n        // check if customer exists in customer list\n        require(\n            requestsMapping[_customerName].bankAddress != address(0),\n            \"KYC Request for the customer is not present\"\n        );\n\n        // check if bank has already voted for the customer\n        require(\n            !hasBankVoted(_customerName, msg.sender),\n            \"The bank has already voted for the customer\"\n        );\n\n        // check if bank is allowed to vote\n        require(\n            banksMapping[msg.sender].isAllowedToVote,\n            \"bank is not allowed to vote\"\n        );\n\n        customerBankVotingArr[_customerName].push(msg.sender);\n        customersMapping[_customerName].downVotes += 1;\n\n        emit BankVoted(msg.sender, _customerName, false);\n        updateCustomerKYCStatus(_customerName);\n\n        // as the customer getting  downVoted, hence the complaint count of verified bank should be increased.\n        updateBankStatus(_customerName);\n        return true;\n    }\n\n    // common function to check and set the KYC Status of the bank customer\n    function updateCustomerKYCStatus(string memory _customerName)\n        private\n        returns (bool)\n    {\n        uint256 upVoteCount = customersMapping[_customerName].upVotes;\n        uint256 downVoteCount = customersMapping[_customerName].downVotes;\n        bool kycStatus = upVoteCount > downVoteCount;\n        if (banksCount > 5) {\n            if (downVoteCount > banksCount / 3) {\n                kycStatus = false;\n            }\n        }\n        customersMapping[_customerName].kycStatus = kycStatus;\n        emit KYCStatusUpdated(_customerName, kycStatus);\n        return true;\n    }\n\n    // update the status of bank if eligible to vote or not\n    function updateBankStatus(string memory _customerName)\n        private\n        returns (bool)\n    {\n        address verifiedByBank = customersMapping[_customerName].bankAddress;\n        banksMapping[verifiedByBank].complaintsReported++;\n        uint256 bankComplaintsCount = banksMapping[verifiedByBank]\n            .complaintsReported;\n        if (banksCount > 5) {\n            if (bankComplaintsCount > banksCount / 3) {\n                banksMapping[verifiedByBank].isAllowedToVote = false;\n                emit BankStatusUpdated(verifiedByBank, false);\n            }\n        }\n\n        return true;\n    }\n\n    // function to retrieve the count of complaints against the bank\n    function getBankComplaintsCount(address _bankAddress)\n        public\n        onlyAdmin\n        view\n        returns (uint256)\n    {\n        require(\n            banksMapping[_bankAddress].ethAddress != address(0),\n            \"Specified bank is not present\"\n        );\n        return banksMapping[_bankAddress].complaintsReported;\n    }\n}\n",
  "sourcePath": "D:\\IITB\\assignments\\BLC_C1_Course_Assignment\\Phase-3\\KYC-SC\\contracts\\KYC.sol",
  "compiler": {
    "name": "solc",
    "version": "0.8.11+commit.d7f03943.Emscripten.clang"
  },
  "schemaVersion": "3.4.5",
  "updatedAt": "2022-03-15T09:20:31.510Z",
  "networkType": "ethereum",
  "devdoc": {
    "kind": "dev",
    "methods": {},
    "version": 1
  },
  "userdoc": {
    "kind": "user",
    "methods": {},
    "notice": "The overall logic and flow is as below: The KYC contract has 3 major entieis: Customer, Bank and KYCRequest. The deployer of the contract will get stored as admin user. This admin user is the only address who is allowed to add banks, remove banks and modify the banks that are authorized to add and validate the KYC of customers. Banks will collect the information of a customer and will call addCustomer function to add it to customers list. Then the bank will call addRequest function so that all banks can verify and then register their vote (upVote or downVote) for this request. One bank can vote (either upVote or downVote) only once for a customer. modifyCustomer function will get called If some documents are updated for a customer and need to reinitiate the KYC process. This will reset the earlier verification status upVote, downVote The KYC status of customer is marked as verified if the count of upVotes is greater than the downVotes. KYC status will makred as false in following 2 scenarios:  i) if the count of downVotes is greater than upVotes ii) if the count of downVotes is greater than 1/3 of the number of banks participating in the KYC process. It assumes at least 6 banks are participating in the KYC process to evaluate the full functionality. If the customer verification fails, the complaint count for the bank that has initiated the request will raised by one. If the complaints count for a bank is greater than 1/3 of the total number of banks, then bank will be banned from the KYC process and cannot add it's vote. Various events are defined, and they will get emitted when corresponding functionality will get executed*",
    "version": 1
  }
}